:100000000C9472000C949A000C949A000C949A0030
:100010000C949A000C949A000C949A000C949A00F8
:100020000C949A000C949A000C949A000C949A00E8
:100030000C949A000C942A070C949A000C949A0041
:100040000C9488060C949A000C94F8060C94D20632
:100050000C949A000C949A000C949A000C949A00B8
:100060000C949A000C949A00005EBCE2613FDD8320
:10007000C29C7E20A3FD1F41009D23BE46DB65F888
:100080008C11AF32CA57E974000000002400270029
:100090002A0000000000250028002B0000000008B6
:1000A000000201000003040700000000000000003F
:1000B00000000000230026002900040404040404B6
:1000C0000404020202020202030303030303010207
:1000D00004081020408001020408102001020408D6
:1000E0001020510711241FBECFEFD8E0DEBFCDBFD7
:1000F00011E0A0E0B1E0E6EBF6E202C005900D925F
:10010000AA3DB107D9F722E0AAEDB1E001C01D92E6
:10011000A93DB207E1F710E0C2E7D0E004C02197A3
:10012000FE010E944B10C137D107C9F70E94CB07CF
:100130000C9459130C940000833081F028F4813022
:1001400099F08230A9F008958730A9F08830C9F07D
:100150008430B1F4809180008F7D03C08091800055
:100160008F7780938000089584B58F7784BD08953C
:1001700084B58F7DFBCF8091B0008F778093B000E6
:1001800008958091B0008F7DF9CFCF93DF93282F12
:1001900030E0F901E456FF4F8491F901E253FF4F3B
:1001A000D491F901E654FF4FC491CC23A1F0811101
:1001B0000E949C00EC2FF0E0EE0FFF1FE055FF4F78
:1001C000A591B491EC91ED2381E090E009F480E0F9
:1001D000DF91CF91089580E090E0FACF1F93CF9305
:1001E000DF93282F30E0F901E456FF4F8491F901A5
:1001F000E253FF4FD491F901E654FF4FC491CC2351
:10020000A9F0162F81110E949C00EC2FF0E0EE0F58
:10021000FF1FEE56FF4FA591B4918FB7F894EC9164
:10022000111108C0D095DE23DC938FBFDF91CF91F1
:100230001F910895DE2BF8CFCF93DF9302978F3174
:10024000910540F5825A9E4FFC018081082E000CDA
:10025000990B880F991FFC01EE5AFE4FC081D18186
:100260006C2F61708091D0020E94EE00BE017595E6
:10027000679561708091D2020E94EE00D595C79576
:10028000D595C7956C2F61708091D402DF91CF9185
:100290000C94EE0090E080E0DCCF61E0019709F083
:1002A00060E08091CA020E94EE0061E08091CC0281
:1002B0000E94EE0083E090E00197F1F760E080910A
:1002C000CC020C94EE00CF93DF9390E0FC01E2535C
:1002D000FF4F249186549F4FFC0184918823C9F0DD
:1002E00090E0880F991FFC01E857FF4FA591B4914A
:1002F000FC01EE56FF4FC591D49161110DC09FB71F
:10030000F8948C91209582238C93888128232883CC
:100310009FBFDF91CF910895623051F49FB7F89459
:100320003C91822F809583238C93E8812E2BEFCFF5
:100330008FB7F894EC912E2B2C938FBFEACF3FB759
:10034000F8948091040290910502A0910602B09168
:10035000070226B5A89B05C02F3F19F00196A11DE5
:10036000B11D3FBFBA2FA92F982F8827BC01CD01FF
:10037000620F711D811D911D42E0660F771F881F5E
:10038000991F4A95D1F708958F929F92AF92BF928D
:10039000CF92DF92EF92FF926B017C010E949F014E
:1003A0004B015C01C114D104E104F104B9F00E94D5
:1003B0009F01681979098A099B09683E7340810584
:1003C000910580F321E0C21AD108E108F10888EE16
:1003D000880E83E0981EA11CB11CE4CFFF90EF9023
:1003E000DF90CF90BF90AF909F908F9008952FB7E0
:1003F000F894609100027091010280910202909144
:1004000003022FBF0895AF92BF92CF92DF92EF9277
:10041000FF920F931F93CF93DF936C017B018B01AE
:10042000040F151FEB015E01AE18BF08C017D107FE
:1004300059F06991D601ED91FC910190F081E02D88
:10044000C6010995892B79F7C501DF91CF911F91DD
:100450000F91FF90EF90DF90CF90BF90AF900895F5
:10046000FC01538D448D252F30E0842F90E0821BBA
:10047000930B541710F0CF96089501970895FC013F
:10048000918D828D981761F0A28DAE0FBF2FB11D97
:100490005D968C91928D9F5F9F73928F90E00895EF
:1004A0008FEF9FEF0895FC01918D828D981731F0A9
:1004B000828DE80FF11D858D90E008958FEF9FEFFD
:1004C0000895FC01918D228D892F90E0805C9F4FD3
:1004D000821B91098F739927089588E092E00E940A
:1004E000610221E0892B09F420E0822F089580E049
:1004F00090E0892B29F00E946D0281110C9400007C
:100500000895FC01A48DA80FB92FB11DA35ABF4FA8
:100510002C91848D90E001968F739927848FA68902
:10052000B7892C93A089B1898C91837080648C9356
:10053000938D848D981306C00288F389E02D808105
:100540008F7D80830895EF92FF920F931F93CF9337
:10055000DF93EC0181E0888F9B8D8C8D98131AC0FE
:10056000E889F989808185FF15C09FB7F894EE89E5
:10057000FF896083E889F989808183708064808342
:100580009FBF81E090E0DF91CF911F910F91FF908D
:10059000EF900895F62E0B8D10E00F5F1F4F0F7335
:1005A0001127E02E8C8D8E110CC00FB607FCFACFF0
:1005B000E889F989808185FFF5CFCE010E9481020B
:1005C000F1CFEB8DEC0FFD2FF11DE35AFF4FF082C1
:1005D0009FB7F8940B8FEA89FB8980818062CFCF27
:1005E000CF93DF93EC01888D8823B9F0AA89BB896A
:1005F000E889F9898C9185FD03C0808186FD0DC055
:100600000FB607FCF7CF8C9185FFF2CF808185FF75
:10061000EDCFCE010E948102E9CFDF91CF91089505
:10062000DC0180E0615090F09D919827E92FEF70F8
:10063000F0E0E859FF4F2491E92FE295EF70F0E0E8
:10064000E858FF4FE491822F8E27ECCF0895FC01EC
:1006500013861586148612861186108617821682D6
:100660001582148213820895DC012C911196ED916C
:10067000FC91F8948181822B81839281322F309575
:100680009323928387E090E00197F1F781818323A0
:10069000818383E290E00197F1F790817894EFEC09
:1006A000F0E03197F1F7922381E009F480E00895BA
:1006B000FC0190810180F281E02D292F209560FFBF
:1006C00014C0F8948281822382838181892B818363
:1006D000A3E2B0E01197F1F78281982B928378948E
:1006E00087ED90E00197F1F70895F89482818223D5
:1006F00082838181892B8183AFEFB0E01197F1F77D
:100700008281982B928378948FE090E0EBCFDF92F8
:10071000EF92FF920F931F93CF93DF93EC01D62EAE
:10072000E42E08E010E0FF24F39461E08D2D8F218A
:1007300009F460E0CE010E945803FF0C015011093A
:10074000A1F7E11010C0F894E981FA8191818881C4
:10075000809589238183E981FA81928188818095BE
:10076000892382837894DF91CF911F910F91FF901D
:10077000EF90DF900895EF92FF920F931F93CF9326
:10078000DF938C017B0140E065E50E948703E70170
:1007900088E0E80EF11C699140E0C8010E948703DF
:1007A000CE15DF05C1F7DF91CF911F910F91FF901B
:1007B000EF900895FC0190810180F281E02DF89482
:1007C0008181292F20958223818378943DE743E01E
:1007D00050E0315029F1DA011197F1F78081892336
:1007E000C1F3F8948281822382838181892B818362
:1007F0007894ABE7B7E01197F1F7F8948181822301
:100800008183A3E1B1E01197F1F78081982381E022
:1008100009F080E07894E3E6F6E03197F1F7089587
:1008200080E008956F927F928F929F92AF92BF92D5
:10083000CF92DF92EF92FF920F931F93CF93DF93AC
:100840008C01EB018091AE029091AF020E94DA031D
:10085000882309F43FC0B8018091AE029091AF02A5
:100860000E94BB0340E06EEB8091AE029091AF021C
:100870000E9487037E016E0189E0C80ED11C8E01A3
:10088000A090AE02B090AF0288E0882E912C712C1F
:1008900066246394C5010E94340381117628660C96
:1008A000E1E08E1A9108B1F7F80171928F01CE162E
:1008B000DF0631F78091AE029091AF020E94DA0319
:1008C000813041F4F70181917F01811105C0E0176A
:1008D000F107C1F790E008C068E0CE010E94100364
:1008E00091E028852813F6CF892FDF91CF911F91B2
:1008F0000F91FF90EF90DF90CF90BF90AF909F90BF
:100900008F907F906F9008958F929F92AF92BF9239
:10091000CF92DF92EF92FF92CF93DF9300D000D07F
:100920001F92CDB7DEB78091AE029091AF020E94C8
:10093000DA0340E06CEC8091AE029091AF020E942D
:1009400087034091A50264E48091AE029091AF02CA
:100950000E9487030E94F7016B017C018091A9022C
:1009600081111EC081E08983CA82DB82EC82FD8214
:1009700029813A814B815C816D8170E080E090E05B
:100980000F900F900F900F900F90DF91CF91FF90ED
:10099000EF90DF90CF90BF90AF909F908F90089591
:1009A0008091AA028823C1F08091A502811114C010
:1009B0008091AE029091AF020E943403813091F297
:1009C0000E94F7016C197D098E099F096E3E7240E5
:1009D0008105910568F3C6CFE091A802E9508EEE3B
:1009E00092E0E33038F4F0E0EE0FFF1FE45BFE4FDF
:1009F000808191814C01B12CA12C8091A602882389
:100A000029F060E08091A7020E94EE00C501B401C8
:100A10000E94C4018091A602882309F4A3CF61E05B
:100A20008091A7020E94EE009DCF0895CF93DF939F
:100A3000CAECD2E061E08C810E94EE001C86DF915E
:100A4000CF910895BF92CF92DF92EF92FF920F93D2
:100A50001F93CF93DF93EC01B62EC72E8D858111A6
:100A600005C0CE010E94DA0381110EC01B861D86CF
:100A70001C8680E0DF91CF911F910F91FF90EF9046
:100A8000DF90CF90BF90089540E060EFCE010E94CC
:100A9000870301E0E12CD12C11E0CE010E94340348
:100AA000F82ECE010E94340391E0F91218C0813073
:100AB00099F51134D8F2DB86D11002C081E08D8720
:100AC0008B81882399F22396EB2DFC2DCF0108967C
:100AD00029912193E817F907D9F781E0CBCFEE2DC3
:100AE000F0E0F8120FC08B851817A0F4DE01AE0FEE
:100AF000BF1F13968C91802379F4F12C193008F4E0
:100B00001C87D12EEC0FFD1F8381902F9095892398
:100B100083830AC08113F1CFFE01EE0DF11D8381A5
:100B2000802B8383FF24F3946F2DCE010E94580302
:100B30001F5F000F11F4E39401E087E08E1508F0C9
:100B4000ACCFB7CF8091FD0181117BC08091E401D2
:100B50009091E501181619060CF073C08091E4011C
:100B60009091E50101979093E5018093E4018091D4
:100B7000E4019091E501892B09F468C08091DA01C4
:100B80009091DB0101969093DB018093DA01209133
:100B900004012817190611F00CF052C01092DB0165
:100BA0001092DA018091FD01882309F449C0209157
:100BB000F4013091F5018091F2019091F301281731
:100BC000390761F08091D602811108C060E0809100
:100BD000CE020E94EE0081E08093D6022091F401C3
:100BE0003091F5018091F2019091F30128173907B6
:100BF00030F48091F4019091F501019671F5209106
:100C0000F4013091F5018091F2019091F301821786
:100C1000930788F12091F4013091F5018091F20160
:100C20009091F3012817390759F41092FD0181E0E2
:100C30008093FE0188EE93E09093E5018093E401B8
:100C400008951092E5011092E40198CF8091DC01A3
:100C5000811194CF0E94160591CF81E090E00E940F
:100C60004D018091F4019091F50101969093F50169
:100C70008093F401CFCF8091F4019091F501892BFD
:100C800049F28FEF9FEF0E944D018091F401909106
:100C9000F5010197EBCFFC0101900020E9F73197B6
:100CA000AF01481B590BBC0188E092E00C94030291
:100CB0000F931F93CF93DF938091F4019091F501EF
:100CC0009093F8018093F701809104018093FA01D9
:100CD000809103018093F9018091DC018093FB01F5
:100CE00006EF11E0D0E0C0E0CE010E947F0FF801D6
:100CF00061918F01681719F0CE010E94870F21962C
:100D0000C630D10589F7DF91CF911F910F910895DA
:100D10001F920F920FB60F9211242F933F938F9330
:100D20009F93AF93BF938091000290910102A09195
:100D30000202B09103023091FF0123E0230F2D370F
:100D400058F50196A11DB11D2093FF01809300026B
:100D500090930102A0930202B093030280910402D7
:100D600090910502A0910602B09107020196A11D83
:100D7000B11D8093040290930502A0930602B093E4
:100D80000702BF91AF919F918F913F912F910F904B
:100D90000FBE0F901F90189526E8230F0296A11DF5
:100DA000B11DD2CF1F920F920FB60F9211242F9325
:100DB0003F934F935F936F937F938F939F93AF93E3
:100DC000BF93EF93FF9388E092E00E948102FF912E
:100DD000EF91BF91AF919F918F917F916F915F91B3
:100DE0004F913F912F910F900FBE0F901F9018952C
:100DF0001F920F920FB60F9211242F938F939F93F0
:100E0000EF93FF93E0911802F09119028081E09135
:100E10001E02F0911F0282FD1BC090818091210271
:100E20008F5F8F7320912202821741F0E09121029F
:100E3000F0E0E85FFD4F958F80932102FF91EF91E5
:100E40009F918F912F910F900FBE0F901F9018952B
:100E50008081F4CF1F920F920FB60F9211242F931F
:100E60003F934F935F936F937F938F939F93AF9332
:100E7000BF93EF93FF93E0910001F0910101099579
:100E8000FF91EF91BF91AF919F918F917F916F9162
:100E90005F914F913F912F910F900FBE0F901F9038
:100EA0001895CF93DF93E8E0F2E01382128288EE88
:100EB00093E0A0E0B0E084839583A683B78381E8C4
:100EC00091E09183808385EC90E09587848784EC22
:100ED00090E09787868780EC90E0918B808B81EC07
:100EE00090E0938B828B82EC90E0958B848B86ECE8
:100EF00090E0978B868B118E128E138E148EEAECF7
:100F0000F2E082E090E09183808383E090E093833D
:100F1000828387E090E09583848386E090E09783E6
:100F2000868385E090E09187808784E090E09387D6
:100F3000828781E090E00E941C010E94160560E01B
:100F40008AE00E946301E8EDF0E0E491CCEBD2E0AE
:100F5000E883E4ECF0E0E491F0E0EE0FFF1FE055F1
:100F6000FF4F859194919A838983CE010E94270334
:100F7000E5EAF2E0168A158A1182D287C1871782C4
:100F80001086108289E0838381E084838583868351
:100F9000DF91CF910895CF93DF93CDB7DEB76B97F5
:100FA0000FB6F894DEBF0FBECDBF789484B58260D3
:100FB00084BD84B5816084BD85B5826085BD85B5FD
:100FC000816085BD80916E00816080936E0010927B
:100FD00081008091810082608093810080918100F6
:100FE0008160809381008091800081608093800087
:100FF0008091B10084608093B1008091B0008160E5
:101000008093B00080917A00846080937A00809110
:101010007A00826080937A0080917A008160809368
:101020007A0080917A00806880937A001092C100E3
:10103000B6EFEB2EB1E0FB2E10E000E0C8010E94FD
:101040007F0FF70181937F010F5F1F4F063011055E
:10105000A9F78091F601863409F093C08091F701D9
:101060009091F8019093F5018093F4018091FA0139
:101070008093040181E09091F901911101C080E019
:101080008093030181E09091FB01911101C080E008
:101090008093DC018091AE029091AF020E94270301
:1010A0001092AC021092AD0211E0BE01665F7F4F5C
:1010B0008091AE029091AF020E942205882309F42C
:1010C00094C067E0CE010A960E94100399898913A3
:1010D000ECCF8091AC028F5F8093AC028A8588321E
:1010E00031F008F068C0803111F08232F1F6809161
:1010F000AD028F5F8093AD028091A502811128C05F
:101100008091AE029091AF020E94DA03BE01665F49
:101110007F4F8091AE029091AF020E94BB0340E0EE
:1011200064EB8091AE029091AF020E9487038091A0
:10113000AE029091AF020E943403082F8091AE025C
:101140009091AF020E94DA03011102C01093A50230
:101150008A858031D9F1BE016F5F7F4FCE010A963B
:101160000E941204882359F08D819A859B3311F4D3
:1011700087FD2CC08F3361F128F58F3191F180E02C
:1011800028C086E48093F6011092F5011092F401D4
:101190001092F8011092F70182E08093040180938D
:1011A000FA0181E0809303018093F9011092DC0140
:1011B0001092FB016FCF8B3309F499CF823409F081
:1011C00074CF95CF8F3579F08F37C9F68CE001C099
:1011D0008AE09091A802981708F067CF8093A80240
:1011E00064CF89E0F6CF8BE0F4CF8091AC02882306
:1011F00009F4D6C081E08093E30189E08093A802DE
:101200008091AE029091AF020E94270300E080918E
:10121000AC02081708F0BBC0BE01665F7F4F80912B
:10122000AE029091AF020E942205882309F48FC07C
:1012300067E0CE010A960E9410039989891387C03E
:101240001091A8028A85803109F481C01D3008F40C
:1012500080C01CE0BE016F5F7F4FCE010A960E94E6
:101260001204882309F473C09D818A858B3311F49D
:1012700097FD6DC01A508FE1133028F4E12FF0E094
:10128000EB5FFE4F8081981709F461C08D838091D8
:10129000AE029091AF020E94DA03BE01665F7F4FFB
:1012A0008091AE029091AF020E94BB0340E06EE4D9
:1012B0008091AE029091AF020E94870340E06B8163
:1012C0008091AE029091AF020E94870340E06C8152
:1012D0008091AE029091AF020E9487038A8580318F
:1012E00041F040E06D818091AE029091AF020E948A
:1012F00087038091AE029091AF022091AB0222232E
:1013000021F10E94DA03882311F1BE01665F7F4F4D
:101310008091AE029091AF020E94BB034091A50262
:1013200068E48091AE029091AF020E9487038091A1
:10133000A502811113C064E170E080E090E00E949A
:10134000C4018091AE029091AF020E94DA030F5F58
:101350005ECF193008F07ECF19E07CCF8091A602D5
:10136000882329F060E08091A7020E94EE0064E1EA
:1013700070E080E090E00E94C4018091A602882382
:1013800001F361E08091A7020E94EE00DACF109293
:10139000A9020E9484042F8B388F498F5A8F6B8F3C
:1013A00062E08CE00E94630162E08BE00E946301D6
:1013B00062E08EE00E94630180910401809302014B
:1013C0008091F4019091F5019093F3018093F201E3
:1013D0001092EA011092EB011092EC011092ED01D3
:1013E0001092EE011092EF011092F0011092F101B3
:1013F000E0911802F091190282E08083E0911402DA
:10140000F09115021082E0911602F09117028FEC14
:10141000808310922002E0911C02F0911D0286E070
:101420008083E0911A02F0911B02808180618083A9
:10143000E0911A02F0911B02808188608083E09124
:101440001A02F0911B02808180688083E0911A0269
:10145000F0911B0280818F7D80838091030188231E
:1014600009F495C080E190E00E941C018091DC01AC
:10147000882309F48FC060E08091CE020E94EE00C4
:1014800081E08093D60280E18093810010928000F9
:1014900080EA9FE0909387008093860081E18093AB
:1014A000810082EA95E0909301018093000181E040
:1014B00080936F0044244A94F3E05F2E612C712CDA
:1014C0008E010F5F1F4FACE92A2EA1E03A2EDD24DA
:1014D000D394E0E4CE2E8091FE01882321F00E9477
:1014E00058061092FE018091FD01811160C08CE0D0
:1014F0000E94C5005C018BE00E94C5007C01A11424
:10150000B10419F0892B09F048C0D092FC01C092B7
:101510007C0080917A00806480937A0080917A00C8
:1015200086FDFCCF2091780030917900A2EEBFEFCC
:101530000E945110A30192010E94C70F205E3F4FED
:101540004F4F5F4F82E02430310568F084E0273050
:10155000310548F088E02E30310528F080E1263151
:10156000310508F080E280930401AB2809F4C9C07A
:10157000EF28B9F48091F4019091F5010A970B9747
:1015800080F08091F4019091F5010A97C8C088E03D
:1015900090E06ACF0E94160576CF8091FA01809381
:1015A00004011092FC018091FA0180930401809162
:1015B000FC01811119C08091D6028823A9F00E94F4
:1015C000F7018090E6019090E701A090E801B090CB
:1015D000E901681979098A099B0961337547810511
:1015E000910510F00E94160588E092E00E946102C9
:1015F000892B09F4BAC088E092E00E943F02CA97A2
:1016000009F0B3C01092EA011092EB011092EC01C4
:101610001092ED011092EE011092EF011092F00184
:101620001092F1017AEEE72E71E0F72E0E94F70199
:101630006093100270931102809312029093130230
:1016400088E092E00E943F0297FF2DC20E94F701BE
:101650008090100290901102A0901202B09013029C
:10166000681979098A099B0980900C0290900D02F3
:10167000A0900E02B0900F02681579058A059B05AF
:10168000F8F268E0A62E61E0B62EF12CE12CF5010F
:101690006281738142E050E08AEE91E00E94AA10DC
:1016A000892B09F043C0F701EE0FFF1FEE0FFF1F5C
:1016B000E85FFE4FE080F1800E94F7016093E60151
:1016C0007093E7018093E8019093E90181E1E816C6
:1016D000F10408F04AC0F701E059F44F0C944B10A4
:1016E000A50BC20BDE0BF10BFC0B0D0C100C190C37
:1016F000240C2F0C330C360C390C400C4F0C440DC1
:101700004E0D8091F4019091F5010A96863F9F4F0E
:1017100008F02ECF8091F4019091F5010A969093F4
:10172000F3018093F201D092FD0141CFFFEFEF1A58
:10173000FF0A24E0A20EB11C31E1E316F10409F026
:10174000A6CF41E1E42EF12CB7CF1092FD0180919C
:10175000F4019091F5019093F3018093F201E8EE8A
:10176000F3E0F093E501E093E40120E030E0232B87
:1017700009F4B1CE0E946D02882309F4A8CE0E941C
:101780000000A5CE8091F4019091F5019F938F9375
:101790002FE831E03F932F931F930F930E94B810CF
:1017A000C8010E944B0685EA91E00E944B060F900B
:1017B0000F900F900F900F900F90D7CF8091FD0159
:1017C0008111D3CF40E150E070E060E08CEE91E019
:1017D0000E94610D7093F5016093F4010E94580618
:1017E000C4CF8091F2019091F3019F938F93EFE822
:1017F000F1E0FF93EF93D0CF8091FD018111B5CF40
:1018000040E150E070E060E08CEE91E00E94610DFC
:101810007093F3016093F201A8CFD092FD01A5CFA0
:1018200080910301882311F184E991E00E944B0625
:101830009CCF8091FD01811198CF88E090E00E94BB
:101840001C0110920301CACF8091FD0181118DCF3F
:1018500080E190E00E941C01D0920301BFCF8091F3
:10186000FD01882319F088E991E0E0CF83EA91E057
:10187000DDCF809104011F928F933F922F928CCFE6
:101880008091FD01811171CF40E150E070E060E096
:101890008CEE91E00E94610D609304019FCF8091D6
:1018A000E301882309F4EDC0E090E101F090E2014A
:1018B0008091AE029091AF020E943403813009F012
:1018C00040C00E94F7018090DD019090DE01A09061
:1018D000DF01B090E001681979098A099B0968382D
:1018E00073418105910568F18091AE029091AF023C
:1018F0000E942703BE01665F7F4F8091AE029091E8
:10190000AF020E942205811121C060E070E08EEFDD
:1019100092EC0E9474107B017093E2016093E101EC
:101920000E9484042A8B3B8B4C8B5D8B6E8B0E94B8
:10193000F7016093DD017093DE018093DF019093E6
:10194000E001EE0CFF1CFF92EF9297CF67E0CE0113
:101950000A960E94100399898913D7CFB801CE0146
:101960000A960E941204882381F23A8140E050E0F6
:10197000BA0137FF04C040E050E068EF7FEFEA852E
:101980002981EB33D1F58D8187FF37C020FDBDCF95
:10199000822F90E0B0E0A0E023E0880F991FAA1FFB
:1019A000BB1F2A95D1F7807E9770AA27BB27832E6D
:1019B000912CB12CA12C3BE0880C991CAA1CBB1CBF
:1019C0003A95D1F788299929AA29BB29842B952BE7
:1019D000A62BB72B8138F4EE9F07FFEFAF07BF07A9
:1019E0000CF493CFBC01CD010E94860E20E030E0C4
:1019F00040E05CE30E94C10E8CCF832F90E0982FD3
:101A00008827990F990F990FF8E02F9F90011124C3
:101A1000822B932B092E000CAA0BBB0B842B952B2E
:101A2000A62BB72BE031B1F62885222399F233E0BB
:101A3000880F991FAA1FBB1F3A95D1F74C015D0172
:101A400030E8832237E0A322BB2480E2881A910881
:101A5000A108B108622F70E08F81FB01E81BF1093A
:101A6000CF019695982F8827979587950E943710D4
:101A7000CB01770FAA0BBB0B880D991DAA1DBB1DAF
:101A8000A9CF81EA91E0D2CED092DC0160E08091D2
:101A9000CE020E94EE00D092D602A0CE1092DC01BF
:101AA0000E9416059BCE8332910509F4EACDF70119
:101AB00081937F01F2EFEF16F1E0FF0609F0B6CD5A
:101AC000E0CDB0E0A0E0E7E6FDE00C94F20F5C01B1
:101AD0006B017A016115710519F0FB019183808317
:101AE000E114F10451F0C7010297839730F040E010
:101AF00030E020E090E072C05E01E5012196F50142
:101B00001081812F90E00E94780E892BA9F71D3259
:101B100001F52196F501118101E0E114F10409F4C8
:101B2000DAC0F0E1EF16F10409F082C0103359F485
:101B300088818F7D883509F076C0198122960260F0
:101B4000F0E1EF2EF12C812C912CA12C88E0B82E05
:101B50008CC01B3221F4E5012296F501118100E0D1
:101B6000DCCFEAE0EE16F10409F4BBC0F0E1EF16B9
:101B7000F10409F06DC0E7CF78E0E72EF12C812C5D
:101B8000912CA12C60E1B62E70C03FE9310F3A31A3
:101B900028F439EA332E80C021E09AC0302F31700A
:101BA000C114D10431F0222309F12197F601D18328
:101BB000C08327FF21C060E070E080E090E8311131
:101BC00004C06FEF7FEF8FEF9FE722E230E03093AA
:101BD000D8022093D702462F372F282F642F732F38
:101BE000822FCDB7DEB7E1E10C940E1001FF04C0E7
:101BF0002297F601D183C083332341F090958095DD
:101C0000709561957F4F8F4F9F4FE5CF97FFE3CF43
:101C100082E290E09093D8028093D7026FEF7FEF3B
:101C20008FEF9FE7D8CF10E3E114F10409F4A4CFBC
:101C300028E0E216F10409F4A2CF0CF092CF812C37
:101C4000912CA12CE0E4BE2E82E0E816F10469F0AC
:101C500060E070E080E090E897010F2C000C440BEE
:101C6000550B0E94A50F49015A0120E060E070E089
:101C7000CB0127010F2C000C66087708FE0150ED00
:101C8000352E310E39E0331540F43FEB310F3A3148
:101C900008F07BCF49EC342E310E3E141F040CF0BB
:101CA0007DCF27FD15C086169706A806B90678F0E1
:101CB000A30192010E94950F630D711D811D911D5D
:101CC00061307105810520E8920708F465CF2FEF98
:101CD00021961081D3CF103309F42ACF2AE0E22EC7
:101CE000F12C9CEC892E982CA82C9CE0B92EBDCF11
:101CF00091110C94810E803219F089508550C8F7EB
:101D00000895992788270895E89409C097FB3EF421
:101D100090958095709561957F4F8F4F9F4F992338
:101D2000A9F0F92F96E9BB279395F69587957795B6
:101D30006795B795F111F8CFFAF4BB0F11F460FF76
:101D40001BC06F5F7F4F8F4F9F4F16C0882311F0CE
:101D500096E911C0772321F09EE8872F762F05C0E2
:101D6000662371F096E8862F70E060E02AF09A957D
:101D7000660F771F881FDAF7880F9695879597F972
:101D800008950E94D40E0C94450F0E94370F38F02E
:101D90000E943E0F20F0952311F00C942E0F0C940E
:101DA000340F11240C94790F0E94560F70F3959FF5
:101DB000C1F3950F50E0551F629FF001729FBB2742
:101DC000F00DB11D639FAA27F00DB11DAA1F649FDE
:101DD0006627B00DA11D661F829F2227B00DA11D91
:101DE000621F739FB00DA11D621F839FA00D611D17
:101DF000221F749F3327A00D611D231F849F600D38
:101E0000211D822F762F6A2F11249F5750409AF060
:101E1000F1F088234AF0EE0FFF1FBB1F661F771FEC
:101E2000881F91505040A9F79E3F510580F00C94B7
:101E30002E0F0C94790F5F3FE4F3983ED4F3869510
:101E400077956795B795F795E7959F5FC1F7FE2B57
:101E5000880F911D9695879597F9089597F99F6733
:101E600080E870E060E008959FEF80EC0895002422
:101E70000A941616170618060906089500240A94EF
:101E800012161306140605060895092E0394000C75
:101E900011F4882352F0BB0F40F4BF2B11F460FF04
:101EA00004C06F5F7F4F8F4F9F4F089557FD90582D
:101EB000440F551F59F05F3F71F04795880F97FB0E
:101EC000991F61F09F3F79F08795089512161306C8
:101ED0001406551FF2CF4695F1DF08C016161706F7
:101EE0001806991FF1CF869571056105089408952C
:101EF000E894BB2766277727CB0197F90895F999CE
:101F0000FECF92BD81BDF89A992780B50895262FFE
:101F1000F999FECF1FBA92BD81BD20BD0FB6F894CE
:101F2000FA9AF99A0FBE01960895DB018F939F9359
:101F30000E94E60FBF91AF91A29F800D911DA39FBC
:101F4000900DB29F900D11240895A1E21A2EAA1BA4
:101F5000BB1BFD010DC0AA1FBB1FEE1FFF1FA21759
:101F6000B307E407F50720F0A21BB30BE40BF50B56
:101F7000661F771F881F991F1A9469F760957095DF
:101F8000809590959B01AC01BD01CF010895052E70
:101F900097FB1EF400940E94DE0F57FD07D00E94AD
:101FA000A50F07FC03D04EF40C94DE0F509540951E
:101FB000309521953F4F4F4F5F4F089590958095F5
:101FC000709561957F4F8F4F9F4F08950E94281005
:101FD000A59F900DB49F900DA49F800D911D11247D
:101FE00008952F923F924F925F926F927F928F92BD
:101FF0009F92AF92BF92CF92DF92EF92FF920F9398
:102000001F93CF93DF93CDB7DEB7CA1BDB0B0FB6A1
:10201000F894DEBF0FBECDBF09942A88398848885E
:102020005F846E847D848C849B84AA84B984C884F4
:10203000DF80EE80FD800C811B81AA81B981CE0FEB
:10204000D11D0FB6F894DEBF0FBECDBFED010895D0
:10205000A29FB001B39FC001A39F700D811D1124E9
:10206000911DB29F700D811D1124911D089597FB44
:10207000072E16F4009407D077FD09D00E94601057
:1020800007FC05D03EF4909581959F4F089570957B
:1020900061957F4F0895EE0FFF1F0590F491E02D9D
:1020A00009940E942810332312F48A1B9B0B0C9472
:1020B0005B100E942810B7FF0895821B930B0895B0
:1020C000AA1BBB1B51E107C0AA1FBB1FA617B7075E
:1020D00010F0A61BB70B881F991F5A95A9F780957A
:1020E0009095BC01CD0108950E947B106894B111B8
:1020F0000C94790F08950E945E0F88F09F5798F016
:10210000B92F9927B751B0F0E1F0660F771F881FFC
:10211000991F1AF0BA95C9F714C0B13091F00E9416
:10212000780FB1E008950C94780F672F782F8827E7
:10213000B85F39F0B93FCCF3869577956795B3953D
:10214000D9F73EF490958095709561957F4F8F4FAC
:102150009F4F0895FB01DC014150504030F08D91BC
:102160000190801919F40020B9F7881B990B089584
:10217000AEE0B0E0EEEBF0E10C94FF0F0D891E89AC
:1021800086E08C831A8309838FEF9FE79E838D837C
:10219000AE01475E5F4F6F89788DCE0101960E9438
:1021A000DB102F813885020F131FF80110822E9645
:1021B000E4E00C941B10ABE0B0E0E1EEF0E10C9435
:1021C000F10F7C013B018A01FC0117821682838199
:1021D00081FFC8C1CE0101965C01F7019381F30133
:1021E00093FD859193FF81913F01882309F453C1A9
:1021F000853239F493FD859193FF81913F018532BA
:1022000029F4B70190E00E94CB12E7CF912C212C4A
:10221000312CFFE1F31538F08B3211F190F480325C
:1022200009F1833229F137FC3CC020ED280F2A3018
:1022300050F536FE20C08AE0989E200D1124922E83
:1022400006C08D3291F0803371F7689430F8F30155
:1022500093FD859193FF81913F018111DACF21C0D8
:10226000689431F8689432F8F2CF689433F8EFCF7D
:10227000689434F8ECCFEAE02E9E200D1124222E33
:10228000689435F8E4CF8E3229F436FC04C16894A2
:1022900036F8DDCF8C3619F4689437F8D8CF883605
:1022A000B1F2982F9F7D95549330E0F08336A1F1E1
:1022B0008337C1F1833509F063C02801F2E04F0E86
:1022C000511CF801C080D180692D70E036FC02C03D
:1022D0006FEF7FEFC6010E94B5124C01689437F88A
:1022E00082010AC00C5F1F4FFFE3F98388248394A7
:1022F000912C6501E89437F833FE2DC0522C8114DF
:10230000910471F5552009F468CFB70180E290E09F
:102310000E94CB125A94F6CFF801808189830E5F18
:102320001F4FE4CF2801F2E04F0E511CF801C0808E
:10233000D180692D70E036FC02C06FEF7FEFC601DF
:102340000E94C0124C018201D5CFB70180E290E01B
:102350000E94CB122A942814190409F0B0F7CECFAA
:10236000F60137FC859137FE81916F01B70190E04E
:102370000E94CB1251105A94F1E08F1A9108BFCFEE
:10238000843619F0893609F077C0F80137FE6BC042
:1023900060817181828193810C5F1F4FF32DFF76E5
:1023A0003F2E97FF09C090958095709561957F4F5E
:1023B0008F4F9F4F689437F82AE030E0A5010E94C4
:1023C000FB12C82ECA188C2C432C36FE0CC0E89485
:1023D00040F8C91440F434FE05C032FC03C0F32DAC
:1023E000FE7E4F2E892C44FE95C0FE01EC0DF11DA2
:1023F0008081803309F087C0242D297E422E842DD0
:102400008870582E43FC95C040FE8FC09C2C8214CF
:1024100018F42C0C922C981844FE91C0B70180E35C
:1024200090E00E94CB1242FE09C088E790E041FE96
:1024300002C088E590E0B7010E94CB12C91408F4ED
:102440008AC0CA94D12C9FEFC91AD90ACA0CDB1CC6
:10245000F60182916F01B70190E00E94CB12AC149B
:10246000BD04B1F74FCF60817181072E000C880B3E
:10247000990B0E5F1F4F92CFD32CE894D4F82AE02B
:1024800030E0853739F1232D297FD22E8F3601F1A7
:1024900048F48835A9F0F701868197812B96E2E10F
:1024A0000C940D10803749F08837A9F7D4FE02C08C
:1024B0006894D2F820E130E00DC06894D4F8F6CFEB
:1024C00034FE03C0822F8660D82E20E132E002C0A5
:1024D00028E030E0F801D7FE0FC060817181828171
:1024E00093810C5F1F4FA5010E94FB12C82ECA18D2
:1024F0003D2CE89437F867CF6081718190E080E0EF
:102500000E5F1F4FF0CF42FC02C0839478CF8394BC
:10251000839475CF842D867809F471CFF6CFB701F7
:1025200080E290E00E94CB1283948214C0F3512C7D
:1025300073CF522C5818821408F46ECFF8CF842D24
:10254000867809F47BCF8BE241FE80E247FC8DE286
:10255000B70190E071CFB70180E390E00E94CB1209
:102560009A946CCF8FEF9FEF99CFFC01059061504B
:1025700070400110D8F7809590958E0F9F1F089599
:10258000FC016150704001900110D8F78095909542
:102590008E0F9F1F08950F931F93CF93DF93182FD4
:1025A000092FEB018B8181FD09C01FEF0FEF812FF8
:1025B000902FDF91CF911F910F91089582FF14C04A
:1025C0002E813F818C819D81281739073CF4E88159
:1025D000F981CF0101969983888310838E819F8131
:1025E00001969F838E83E3CFE885F985812F099536
:1025F000892BA1F3DACFFA01AA27283051F1203133
:1026000081F1E8946F936E7F6E5F7F4F8F4F9F4F86
:10261000AF4FB1E03ED0B4E03CD0670F781F891FC8
:102620009A1FA11D680F791F8A1F911DA11D6A0F96
:10263000711D811D911DA11D20D009F468943F9149
:102640002AE0269F11243019305D3193DEF6CF0148
:102650000895462F4770405D4193B3E00FD0C9F70E
:10266000F6CF462F4F70405D4A3318F0495D31FD7B
:102670004052419302D0A9F7EACFB4E0A6959795CE
:10268000879577956795BA95C9F7009761057105A4
:1026900008959B01AC010A2E0694579547953795EE
:1026A0002795BA95C9F7620F731F841F951FA01D48
:0626B0000895F894FFCF2D
:1026B60015052001023F5F7F0000A7010100AA0166
:1026C6000200AD010300B0010400B3010500B6012C
:1026D6000600B9010700BC010800BF010900C201DC
:1026E6000A00C5010B00C8010C00CB010D00CE018C
:1026F6000E00D1010F00D4011000D7015E00BC000E
:102706007701000001000200030004000700010039
:1027160002000000030000000000000004000000AA
:10272600000000000000000000000000050000009E
:1027360000A30203023002F00261023F02530225A7
:1027460030345800464623003031230025303258B5
:1027560000303030302300465100475000535000BF
:10276600474E00534E004647004748005346005325
:102776004800474900475600474200474400534433
:0A2786000047540048450048440095
:00000001FF
