:100000000C9472000C949A000C949A000C949A0030
:100010000C949A000C949A000C949A000C949A00F8
:100020000C949A000C949A000C949A000C949A00E8
:100030000C949A000C942A070C949A000C949A0041
:100040000C9488060C949A000C94F8060C94D20632
:100050000C949A000C949A000C949A000C949A00B8
:100060000C949A000C949A00005EBCE2613FDD8320
:10007000C29C7E20A3FD1F41009D23BE46DB65F888
:100080008C11AF32CA57E974000000002400270029
:100090002A0000000000250028002B0000000008B6
:1000A000000201000003040700000000000000003F
:1000B00000000000230026002900040404040404B6
:1000C0000404020202020202030303030303010207
:1000D00004081020408001020408102001020408D6
:1000E0001020510711241FBECFEFD8E0DEBFCDBFD7
:1000F00022E0AAEDB1E001C01D92A93DB207E1F7EF
:1001000011E0A0E0B1E0ECECF5E202C005900D9248
:10011000AA3DB107D9F710E0C2E7D0E004C02197AB
:10012000FE010E94E50FC137D107C9F70E94CB0736
:100130000C94E4120C940000833081F028F4813098
:1001400099F08230A9F008958730A9F08830C9F07D
:100150008430B1F4809180008F7D03C08091800055
:100160008F7780938000089584B58F7784BD08953C
:1001700084B58F7DFBCF8091B0008F778093B000E6
:1001800008958091B0008F7DF9CFCF93DF93282F12
:1001900030E0F901E456FF4F8491F901E253FF4F3B
:1001A000D491F901E654FF4FC491CC23A1F0811101
:1001B0000E949C00EC2FF0E0EE0FFF1FE055FF4F78
:1001C000A591B491EC91ED2381E090E009F480E0F9
:1001D000DF91CF91089580E090E0FACF1F93CF9305
:1001E000DF93282F30E0F901E456FF4F8491F901A5
:1001F000E253FF4FD491F901E654FF4FC491CC2351
:10020000A9F0162F81110E949C00EC2FF0E0EE0F58
:10021000FF1FEE56FF4FA591B4918FB7F894EC9164
:10022000111108C0D095DE23DC938FBFDF91CF91F1
:100230001F910895DE2BF8CFCF93DF9302978F3174
:10024000910540F5835A9E4FFC018081082E000CD9
:10025000990B880F991FFC01EF5AFE4FC081D18185
:100260006C2F61708091D0020E94EE00BE017595E6
:10027000679561708091D2020E94EE00D595C79576
:10028000D595C7956C2F61708091D402DF91CF9185
:100290000C94EE0090E080E0DCCF61E0019709F083
:1002A00060E08091CA020E94EE0061E08091CC0281
:1002B0000E94EE0083E090E00197F1F760E080910A
:1002C000CC020C94EE00CF93DF9390E0FC01E2535C
:1002D000FF4F249186549F4FFC0184918823C9F0DD
:1002E00090E0880F991FFC01E857FF4FA591B4914A
:1002F000FC01EE56FF4FC591D49161110DC09FB71F
:10030000F8948C91209582238C93888128232883CC
:100310009FBFDF91CF910895623051F49FB7F89459
:100320003C91822F809583238C93E8812E2BEFCFF5
:100330008FB7F894EC912E2B2C938FBFEACF3FB759
:10034000F8948091040290910502A0910602B09168
:10035000070226B5A89B05C02F3F19F00196A11DE5
:10036000B11D3FBFBA2FA92F982F8827BC01CD01FF
:10037000620F711D811D911D42E0660F771F881F5E
:10038000991F4A95D1F708958F929F92AF92BF928D
:10039000CF92DF92EF92FF926B017C010E949F014E
:1003A0004B015C01C114D104E104F104B9F00E94D5
:1003B0009F01681979098A099B09683E7340810584
:1003C000910580F321E0C21AD108E108F10888EE16
:1003D000880E83E0981EA11CB11CE4CFFF90EF9023
:1003E000DF90CF90BF90AF909F908F9008952FB7E0
:1003F000F894609100027091010280910202909144
:1004000003022FBF0895AF92BF92CF92DF92EF9277
:10041000FF920F931F93CF93DF936C017B018B01AE
:10042000040F151FEB015E01AE18BF08C017D107FE
:1004300059F06991D601ED91FC910190F081E02D88
:10044000C6010995892B79F7C501DF91CF911F91DD
:100450000F91FF90EF90DF90CF90BF90AF900895F5
:10046000FC01538D448D252F30E0842F90E0821BBA
:10047000930B541710F0CF96089501970895FC013F
:10048000918D828D981761F0A28DAE0FBF2FB11D97
:100490005D968C91928D9F5F9F73928F90E00895EF
:1004A0008FEF9FEF0895FC01918D828D981731F0A9
:1004B000828DE80FF11D858D90E008958FEF9FEFFD
:1004C0000895FC01918D228D892F90E0805C9F4FD3
:1004D000821B91098F739927089588E092E00E940A
:1004E000610221E0892B09F420E0822F089580E049
:1004F00090E0892B29F00E946D0281110C9400007C
:100500000895FC01A48DA80FB92FB11DA35ABF4FA8
:100510002C91848D90E001968F739927848FA68902
:10052000B7892C93A089B1898C91837080648C9356
:10053000938D848D981306C00288F389E02D808105
:100540008F7D80830895EF92FF920F931F93CF9337
:10055000DF93EC0181E0888F9B8D8C8D98131AC0FE
:10056000E889F989808185FF15C09FB7F894EE89E5
:10057000FF896083E889F989808183708064808342
:100580009FBF81E090E0DF91CF911F910F91FF908D
:10059000EF900895F62E0B8D10E00F5F1F4F0F7335
:1005A0001127E02E8C8D8E110CC00FB607FCFACFF0
:1005B000E889F989808185FFF5CFCE010E9481020B
:1005C000F1CFEB8DEC0FFD2FF11DE35AFF4FF082C1
:1005D0009FB7F8940B8FEA89FB8980818062CFCF27
:1005E000CF93DF93EC01888D8823B9F0AA89BB896A
:1005F000E889F9898C9185FD03C0808186FD0DC055
:100600000FB607FCF7CF8C9185FFF2CF808185FF75
:10061000EDCFCE010E948102E9CFDF91CF91089505
:10062000DC0180E0615090F09D919827E92FEF70F8
:10063000F0E0E859FF4F2491E92FE295EF70F0E0E8
:10064000E858FF4FE491822F8E27ECCF0895FC01EC
:1006500013861586148612861186108617821682D6
:100660001582148213820895DC012C911196ED916C
:10067000FC91F8948181822B81839281322F309575
:100680009323928387E090E00197F1F781818323A0
:10069000818383E290E00197F1F790817894EFEC09
:1006A000F0E03197F1F7922381E009F480E00895BA
:1006B000FC0190810180F281E02D292F209560FFBF
:1006C00014C0F8948281822382838181892B818363
:1006D000A3E2B0E01197F1F78281982B928378948E
:1006E00087ED90E00197F1F70895F89482818223D5
:1006F00082838181892B8183AFEFB0E01197F1F77D
:100700008281982B928378948FE090E0EBCFDF92F8
:10071000EF92FF920F931F93CF93DF93EC01D62EAE
:10072000E42E08E010E0FF24F39461E08D2D8F218A
:1007300009F460E0CE010E945803FF0C015011093A
:10074000A1F7E11010C0F894E981FA8191818881C4
:10075000809589238183E981FA81928188818095BE
:10076000892382837894DF91CF911F910F91FF901D
:10077000EF90DF900895EF92FF920F931F93CF9326
:10078000DF938C017B0140E065E50E948703E70170
:1007900088E0E80EF11C699140E0C8010E948703DF
:1007A000CE15DF05C1F7DF91CF911F910F91FF901B
:1007B000EF900895FC0190810180F281E02DF89482
:1007C0008181292F20958223818378943DE743E01E
:1007D00050E0315029F1DA011197F1F78081892336
:1007E000C1F3F8948281822382838181892B818362
:1007F0007894ABE7B7E01197F1F7F8948181822301
:100800008183A3E1B1E01197F1F78081982381E022
:1008100009F080E07894E3E6F6E03197F1F7089587
:1008200080E008956F927F928F929F92AF92BF92D5
:10083000CF92DF92EF92FF920F931F93CF93DF93AC
:100840008C01EB018091AE029091AF020E94DA031D
:10085000882309F43FC0B8018091AE029091AF02A5
:100860000E94BB0340E06EEB8091AE029091AF021C
:100870000E9487037E016E0189E0C80ED11C8E01A3
:10088000A090AE02B090AF0288E0882E912C712C1F
:1008900066246394C5010E94340381117628660C96
:1008A000E1E08E1A9108B1F7F80171928F01CE162E
:1008B000DF0631F78091AE029091AF020E94DA0319
:1008C000813041F4F70181917F01811105C0E0176A
:1008D000F107C1F790E008C068E0CE010E94100364
:1008E00091E028852813F6CF892FDF91CF911F91B2
:1008F0000F91FF90EF90DF90CF90BF90AF909F90BF
:100900008F907F906F9008958F929F92AF92BF9239
:10091000CF92DF92EF92FF92CF93DF9300D000D07F
:100920001F92CDB7DEB78091AE029091AF020E94C8
:10093000DA0340E06CEC8091AE029091AF020E942D
:1009400087034091A50264E48091AE029091AF02CA
:100950000E9487030E94F7016B017C018091A9022C
:1009600081111EC081E08983CA82DB82EC82FD8214
:1009700029813A814B815C816D8170E080E090E05B
:100980000F900F900F900F900F90DF91CF91FF90ED
:10099000EF90DF90CF90BF90AF909F908F90089591
:1009A0008091AA028823C1F08091A502811114C010
:1009B0008091AE029091AF020E943403813091F297
:1009C0000E94F7016C197D098E099F096E3E7240E5
:1009D0008105910568F3C6CFE091A802E9508EEE3B
:1009E00092E0E33038F4F0E0EE0FFF1FE55BFE4FDE
:1009F000808191814C01B12CA12C8091A602882389
:100A000029F060E08091A7020E94EE00C501B401C8
:100A10000E94C4018091A602882309F4A3CF61E05B
:100A20008091A7020E94EE009DCF0895CF93DF939F
:100A3000CAECD2E061E08C810E94EE001C86DF915E
:100A4000CF910895BF92CF92DF92EF92FF920F93D2
:100A50001F93CF93DF93EC01B62EC72E8D858111A6
:100A600005C0CE010E94DA0381110EC01B861D86CF
:100A70001C8680E0DF91CF911F910F91FF90EF9046
:100A8000DF90CF90BF90089540E060EFCE010E94CC
:100A9000870301E0E12CD12C11E0CE010E94340348
:100AA000F82ECE010E94340391E0F91218C0813073
:100AB00099F51134D8F2DB86D11002C081E08D8720
:100AC0008B81882399F22396EB2DFC2DCF0108967C
:100AD00029912193E817F907D9F781E0CBCFEE2DC3
:100AE000F0E0F8120FC08B851817A0F4DE01AE0FEE
:100AF000BF1F13968C91802379F4F12C193008F4E0
:100B00001C87D12EEC0FFD1F8381902F9095892398
:100B100083830AC08113F1CFFE01EE0DF11D8381A5
:100B2000802B8383FF24F3946F2DCE010E94580302
:100B30001F5F000F11F4E39401E087E08E1508F0C9
:100B4000ACCFB7CF8091FD0181117BC08091EA01CC
:100B50009091EB01181619060CF073C08091EA0110
:100B60009091EB0101979093EB018093EA018091C2
:100B7000EA019091EB01892B09F468C08091DA01B8
:100B80009091DB0101969093DB018093DA01209133
:100B900002012817190611F00CF052C01092DB0167
:100BA0001092DA018091FD01882309F449C0209157
:100BB000FA013091FB018091F8019091F901281719
:100BC000390761F08091D602811108C060E0809100
:100BD000CE020E94EE0081E08093D6022091FA01BD
:100BE0003091FB018091F8019091F90128173907A4
:100BF00030F48091FA019091FB01019671F52091FA
:100C0000FA013091FB018091F8019091F90182176E
:100C1000930788F12091FA013091FB018091F8014E
:100C20009091F9012817390759F41092FD0181E0DC
:100C30008093FE0188EE93E09093EB018093EA01AC
:100C400008951092EB011092EA0198CF8091E20191
:100C5000811194CF0E94160591CF81E090E00E940F
:100C60004D018091FA019091FB0101969093FB0157
:100C70008093FA01CFCF8091FA019091FB01892BEB
:100C800049F28FEF9FEF0E944D018091FA01909100
:100C9000FB010197EBCFFC0101900020E9F73197B0
:100CA000AF01481B590BBC0188E092E00C94030291
:100CB0000F931F93CF93DF938091FA019091FB01E3
:100CC0009093DE018093DD01809102018093E00129
:100CD000809103018093DF018091E2018093E10123
:100CE0000CED11E0D0E0C0E0CE010E94380FF80119
:100CF00061918F01681719F0CE010E94400F219673
:100D0000C630D10589F7DF91CF911F910F910895DA
:100D10001F920F920FB60F9211242F933F938F9330
:100D20009F93AF93BF938091000290910102A09195
:100D30000202B09103023091FF0123E0230F2D370F
:100D400058F50196A11DB11D2093FF01809300026B
:100D500090930102A0930202B093030280910402D7
:100D600090910502A0910602B09107020196A11D83
:100D7000B11D8093040290930502A0930602B093E4
:100D80000702BF91AF919F918F913F912F910F904B
:100D90000FBE0F901F90189526E8230F0296A11DF5
:100DA000B11DD2CF1F920F920FB60F9211242F9325
:100DB0003F934F935F936F937F938F939F93AF93E3
:100DC000BF93EF93FF9388E092E00E948102FF912E
:100DD000EF91BF91AF919F918F917F916F915F91B3
:100DE0004F913F912F910F900FBE0F901F9018952C
:100DF0001F920F920FB60F9211242F938F939F93F0
:100E0000EF93FF93E0911802F09119028081E09135
:100E10001E02F0911F0282FD1BC090818091210271
:100E20008F5F8F7320912202821741F0E09121029F
:100E3000F0E0E85FFD4F958F80932102FF91EF91E5
:100E40009F918F912F910F900FBE0F901F9018952B
:100E50008081F4CF1F920F920FB60F9211242F931F
:100E60003F934F935F936F937F938F939F93AF9332
:100E7000BF93EF93FF93E0910001F0910101099579
:100E8000FF91EF91BF91AF919F918F917F916F9162
:100E90005F914F913F912F910F900FBE0F901F9038
:100EA0001895CF93DF93E8E0F2E01382128288EE88
:100EB00093E0A0E0B0E084839583A683B78380E8C5
:100EC00091E09183808385EC90E09587848784EC22
:100ED00090E09787868780EC90E0918B808B81EC07
:100EE00090E0938B828B82EC90E0958B848B86ECE8
:100EF00090E0978B868B118E128E138E148EEAECF7
:100F0000F2E082E090E09183808383E090E093833D
:100F1000828387E090E09583848386E090E09783E6
:100F2000868385E090E09187808784E090E09387D6
:100F3000828781E090E00E941C010E94160560E01B
:100F40008AE00E946301E8EDF0E0E491CCEBD2E0AE
:100F5000E883E4ECF0E0E491F0E0EE0FFF1FE055F1
:100F6000FF4F859194919A838983CE010E94270334
:100F7000E5EAF2E0168A158A1182D287C1871782C4
:100F80001086108289E0838381E084838583868351
:100F9000DF91CF910895CF93DF93CDB7DEB76B97F5
:100FA0000FB6F894DEBF0FBECDBF789484B58260D3
:100FB00084BD84B5816084BD85B5826085BD85B5FD
:100FC000816085BD80916E00816080936E0010927B
:100FD00081008091810082608093810080918100F6
:100FE0008160809381008091800081608093800087
:100FF0008091B10084608093B1008091B0008160E5
:101000008093B00080917A00846080937A00809110
:101010007A00826080937A0080917A008160809368
:101020007A0080917A00806880937A001092C100E3
:10103000BCEDEB2EB1E0FB2E10E000E0C8010E94F9
:10104000380FF70181937F010F5F1F4F06301105A5
:10105000A9F78091DC01863409F093C08091DD010D
:101060009091DE019093FB018093FA018091E00161
:101070008093020181E09091DF01911101C080E035
:101080008093030181E09091E101911101C080E022
:101090008093E2018091AE029091AF020E942703FB
:1010A0001092AC021092AD0211E0BE01665F7F4F5C
:1010B0008091AE029091AF020E942205882309F42C
:1010C00094C067E0CE010A960E94100399898913A3
:1010D000ECCF8091AC028F5F8093AC028A8588321E
:1010E00031F008F068C0803111F08232F1F6809161
:1010F000AD028F5F8093AD028091A502811128C05F
:101100008091AE029091AF020E94DA03BE01665F49
:101110007F4F8091AE029091AF020E94BB0340E0EE
:1011200064EB8091AE029091AF020E9487038091A0
:10113000AE029091AF020E943403082F8091AE025C
:101140009091AF020E94DA03011102C01093A50230
:101150008A858031D9F1BE016F5F7F4FCE010A963B
:101160000E941204882359F08D819A859B3311F4D3
:1011700087FD2CC08F3361F128F58F3191F180E02C
:1011800028C086E48093DC011092FB011092FA01E2
:101190001092DE011092DD0182E0809302018093C3
:1011A000E00181E0809303018093DF011092E2016E
:1011B0001092E1016FCF8B3309F499CF823409F09B
:1011C00074CF95CF8F3579F08F37C9F68CE001C099
:1011D0008AE09091A802981708F067CF8093A80240
:1011E00064CF89E0F6CF8BE0F4CF8091AC02882306
:1011F00009F4D6C081E08093E90189E08093A802D8
:101200008091AE029091AF020E94270300E080918E
:10121000AC02081708F0BBC0BE01665F7F4F80912B
:10122000AE029091AF020E942205882309F48FC07C
:1012300067E0CE010A960E9410039989891387C03E
:101240001091A8028A85803109F481C01D3008F40C
:1012500080C01CE0BE016F5F7F4FCE010A960E94E6
:101260001204882309F473C09D818A858B3311F49D
:1012700097FD6DC01A508FE1133028F4E12FF0E094
:10128000EC5FFE4F8081981709F461C08D838091D7
:10129000AE029091AF020E94DA03BE01665F7F4FFB
:1012A0008091AE029091AF020E94BB0340E06EE4D9
:1012B0008091AE029091AF020E94870340E06B8163
:1012C0008091AE029091AF020E94870340E06C8152
:1012D0008091AE029091AF020E9487038A8580318F
:1012E00041F040E06D818091AE029091AF020E948A
:1012F00087038091AE029091AF022091AB0222232E
:1013000021F10E94DA03882311F1BE01665F7F4F4D
:101310008091AE029091AF020E94BB034091A50262
:1013200068E48091AE029091AF020E9487038091A1
:10133000A502811113C064E170E080E090E00E949A
:10134000C4018091AE029091AF020E94DA030F5F58
:101350005ECF193008F07ECF19E07CCF8091A602D5
:10136000882329F060E08091A7020E94EE0064E1EA
:1013700070E080E090E00E94C4018091A602882382
:1013800001F361E08091A7020E94EE00DACF109293
:10139000A9020E9484042F8B388F498F5A8F6B8F3C
:1013A00062E08CE00E94630162E08BE00E946301D6
:1013B00062E08EE00E9463018091FA019091FB014E
:1013C0009093F9018093F8011092F0011092F101CD
:1013D0001092F2011092F3011092F4011092F501B3
:1013E0001092F6011092F701E0911802F0911902A3
:1013F00082E08083E0911402F09115021082E09166
:101400001602F09117028FEC808310922002E09177
:101410001C02F0911D0286E08083E0911A02F09197
:101420001B02808180618083E0911A02F0911B028F
:10143000808188608083E0911A02F0911B02808194
:1014400080688083E0911A02F0911B0280818F7D79
:10145000808380910301882309F464C080E190E0D7
:101460000E941C018091E201882309F45EC060E0C3
:101470008091CE020E94EE0081E08093D60280E14E
:10148000809381001092800080EA9FE09093870013
:101490008093860081E18093810082EA95E09093B9
:1014A00001018093000181E080936F008E010F5F46
:1014B0001F4FFBE9CF2EF1E0DF2EAEE8AA2EA1E010
:1014C000BA2E55245394E0E02E2EE0E03E2E80917B
:1014D000FE01882321F00E9458061092FE0180919F
:1014E000FD01811127C08CE00E94C5007C018BE0CA
:1014F0000E94C500E114F10411F00097C9F4509264
:10150000FC01EF2809F4C0C0892B91F48091FA0105
:101510009091FB01019761F08091FA019091FB019C
:101520000197BFC088E090E09BCF0E941605A7CF2F
:101530001092FC018091FC01811119C08091D602AA
:101540008823A9F00E94F7012091EC013091ED0170
:101550004091EE015091EF01621B730B840B950BD0
:10156000613375478105910510F00E94160588E0EA
:1015700092E00E946102892B09F4B9C088E092E0F0
:101580000E943F02CA9709F0B2C01092F001109277
:10159000F1011092F2011092F3011092F4011092F5
:1015A000F5011092F6011092F70170EFE72E71E04D
:1015B000F72E0E94F701609310027093110280933E
:1015C00012029093130288E092E00E943F0297FF7C
:1015D00023C20E94F7012091100230911102409124
:1015E000120250911302621B730B840B950B209116
:1015F0000C0230910D0240910E0250910F026217C1
:10160000730784079507F8F267E0862E61E0962E4F
:10161000F12CE12CF4016281738142E050E080EF13
:1016200091E00E943510892B09F042C0F701EE0FBE
:10163000FF1FEE0FFF1FE95FFE4FE080F1800E9469
:10164000F7016093EC017093ED018093EE019093AC
:10165000EF0141E1E416F10408F049C0F701ED5C47
:10166000F44F0C94E50F670B830B9D0BB00BB50B80
:10167000C60BC90BD20BDD0BE80BEC0BEF0BF20B1F
:10168000F90B080CFD0C070D2091FA013091FB01BC
:101690002E3F3F4F09F438CF8091FA019091FB0122
:1016A00001969093F9018093F8015092FD0142CF89
:1016B000FFEFEF1AFF0A24E0820E911C31E1E316DE
:1016C000F10409F0A7CF41E1E42EF12CB8CF10923C
:1016D000FD018091FA019091FB019093F9018093B3
:1016E000F80188EE93E09093EB018093EA012114D6
:1016F000310409F4ECCE0E946D02882309F4E1CE96
:101700000E940000DECE8091FA019091FB019F9330
:101710008F93BF92AF921F930F930E944310C80103
:101720000E944B0684EA91E00E944B060F900F90B6
:101730000F900F900F900F90DACF8091FD018111E3
:10174000D6CF40E150E070E060E082EF91E00E948F
:101750001A0D7093FB016093FA010E945806C7CFDF
:101760008091F8019091F901D2CF8091FD01811112
:10177000BECF40E150E070E060E082EF91E00E9477
:101780001A0D7093F9016093F801B1CF5092FD01E9
:10179000AECF80910301882311F183E991E00E948B
:1017A0004B06A5CF8091FD018111A1CF88E090E08B
:1017B0000E941C0110920301D0CF8091FD01811184
:1017C00096CF80E190E00E941C0150920301C5CFAA
:1017D0008091FD01882319F087E991E0E0CF82EA4A
:1017E00091E0DDCF809102011F928F93DF92CF9223
:1017F00092CF8091FD0181117ACF40E150E070E0FD
:1018000060E082EF91E00E941A0D60930201A5CF83
:101810008091E901882309F4EDC0E090E701F090A0
:10182000E8018091AE029091AF020E9434038130B2
:1018300009F040C00E94F7012091E3013091E401DA
:101840004091E5015091E601621B730B840B950BEF
:10185000683873418105910568F18091AE029091DD
:10186000AF020E942703BE01665F7F4F8091AE02E8
:101870009091AF020E942205811121C060E070E0CA
:101880008EEF92EC0E94FF0F7B017093E801609352
:10189000E7010E9484042A8B3B8B4C8B5D8B6E8B03
:1018A0000E94F7016093E3017093E4018093E501E6
:1018B0009093E601EE0CFF1CFF92EF9297CF67E04A
:1018C000CE010A960E94100399898913D7CFB801D7
:1018D000CE010A960E941204882381F23A8140E0E8
:1018E00050E0BA0137FF04C040E050E068EF7FEFFE
:1018F000EA852981EB33D1F58D8187FF37C020FD43
:10190000BDCF822F90E0B0E0A0E023E0880F991FC8
:10191000AA1FBB1F2A95D1F7807E9770AA27BB27E5
:10192000632E712C912C812C3BE0660C771C881C5B
:10193000991C3A95D1F786299729A829B929842B8A
:10194000952BA62BB72B8138F4EE9F07FFEFAF073F
:10195000BF070CF493CFBC01CD010E943F0E20E0E5
:1019600030E040E05CE30E947A0E8CCF832F90E061
:10197000982F8827990F990F990FF8E02F9F9001C2
:101980001124822B932B092E000CAA0BBB0B842B4A
:10199000952BA62BB72BE031B1F62885222399F29F
:1019A00033E0880F991FAA1FBB1F3A95D1F7BC01DE
:1019B000CD016078877099273B014C0130E2631AB2
:1019C000710881089108622F70E08F81FB01E81B8C
:1019D000F109CF019695982F8827979587950E94B2
:1019E000D10FCB01770FAA0BBB0B860D971DA81D3E
:1019F000B91DA9CF80EA91E0D2CE5092E20160E019
:101A00008091CE020E94EE005092D602A6CE109295
:101A1000E2010E941605A1CE8332910509F4F4CDAE
:101A2000F70181937F01F8EFEF16F1E0FF0609F06F
:101A3000C0CDEACDB0E0A0E0E0E2FDE00C948C0F78
:101A40005C016B017A016115710519F0FB0191834D
:101A50008083E114F10451F0C7010297839730F0BD
:101A600040E030E020E090E072C05E01E5012196A8
:101A7000F5011081812F90E00E94310E892BA9F78A
:101A80001D3201F52196F501118101E0E114F10407
:101A900009F4DAC0F0E1EF16F10409F082C0103366
:101AA00059F488818F7D883509F076C01981229696
:101AB0000260F0E1EF2EF12C812C912CA12C88E01A
:101AC000B82E8CC01B3221F4E5012296F50111815C
:101AD00000E0DCCFEAE0EE16F10409F4BBC0F0E16F
:101AE000EF16F10409F06DC0E7CF78E0E72EF12C96
:101AF000812C912CA12C60E1B62E70C03FE9310FF2
:101B00003A3128F439EA332E80C021E09AC0302FD0
:101B10003170C114D10431F0222309F12197F6016B
:101B2000D183C08327FF21C060E070E080E090E8AF
:101B3000311104C06FEF7FEF8FEF9FE722E230E0BB
:101B40003093D8022093D702462F372F282F642FA7
:101B5000732F822FCDB7DEB7E1E10C94A80F01FF00
:101B600004C02297F601D183C083332341F09095BE
:101B70008095709561957F4F8F4F9F4FE5CF97FF71
:101B8000E3CF82E290E09093D8028093D7026FEF88
:101B90007FEF8FEF9FE7D8CF10E3E114F10409F452
:101BA000A4CF28E0E216F10409F4A2CF0CF092CF02
:101BB000812C912CA12CE0E4BE2E82E0E816F104E9
:101BC00069F060E070E080E090E897010F2C000C75
:101BD000440B550B0E945E0F49015A0120E060E062
:101BE00070E0CB0127010F2C000C66087708FE017E
:101BF00050ED352E310E39E0331540F43FEB310F07
:101C00003A3108F07BCF49EC342E310E3E141F04DC
:101C10000CF07DCF27FD15C086169706A806B906DD
:101C200078F0A30192010E944E0F630D711D811D7A
:101C3000911D61307105810520E8920708F465CF98
:101C40002FEF21961081D3CF103309F42ACF2AE049
:101C5000E22EF12C9CEC892E982CA82C9CE0B92E1D
:101C6000BDCF91110C943A0E803219F089508550F5
:101C7000C8F70895992788270895E89409C097FB25
:101C80003EF490958095709561957F4F8F4F9F4F53
:101C90009923A9F0F92F96E9BB279395F695879597
:101CA00077956795B795F111F8CFFAF4BB0F11F45A
:101CB00060FF1BC06F5F7F4F8F4F9F4F16C0882301
:101CC00011F096E911C0772321F09EE8872F762F37
:101CD00005C0662371F096E8862F70E060E02AF078
:101CE0009A95660F771F881FDAF7880F9695879564
:101CF00097F908950E948D0E0C94FE0E0E94F00E2E
:101D000038F00E94F70E20F0952311F00C94E70EA6
:101D10000C94ED0E11240C94320F0E940F0F70F3EF
:101D2000959FC1F3950F50E0551F629FF001729F80
:101D3000BB27F00DB11D639FAA27F00DB11DAA1F8F
:101D4000649F6627B00DA11D661F829F2227B00DDC
:101D5000A11D621F739FB00DA11D621F839FA00D67
:101D6000611D221F749F3327A00D611D231F849FB7
:101D7000600D211D822F762F6A2F11249F5750400E
:101D80009AF0F1F088234AF0EE0FFF1FBB1F661F89
:101D9000771F881F91505040A9F79E3F510580F052
:101DA0000C94E70E0C94320F5F3FE4F3983ED4F3AB
:101DB000869577956795B795F795E7959F5FC1F7F6
:101DC000FE2B880F911D9695879597F9089597F9A1
:101DD0009F6780E870E060E008959FEF80EC0895D1
:101DE00000240A94161617061806090608950024FA
:101DF0000A9412161306140605060895092E039474
:101E0000000C11F4882352F0BB0F40F4BF2B11F4E7
:101E100060FF04C06F5F7F4F8F4F9F4F089557FD46
:101E20009058440F551F59F05F3F71F04795880F48
:101E300097FB991F61F09F3F79F0879508951216DF
:101E400013061406551FF2CF4695F1DF08C016168B
:101E500017061806991FF1CF86957105610508943C
:101E60000895E894BB2766277727CB0197F9089553
:101E7000F999FECF92BD81BDF89A992780B5089552
:101E8000262FF999FECF1FBA92BD81BD20BD0FB696
:101E9000F894FA9AF99A0FBE01960895DB018F9390
:101EA0009F930E94800FBF91AF91A29F800D911DC3
:101EB000A39F900DB29F900D11240895A1E21A2EB8
:101EC000AA1BBB1BFD010DC0AA1FBB1FEE1FFF1FDE
:101ED000A217B307E407F50720F0A21BB30BE40B2E
:101EE000F50B661F771F881F991F1A9469F7609575
:101EF0007095809590959B01AC01BD01CF0108952F
:101F00000E94C20FA59F900DB49F900DA49F800DBD
:101F1000911D112408952F923F924F925F926F92DC
:101F20007F928F929F92AF92BF92CF92DF92EF9269
:101F3000FF920F931F93CF93DF93CDB7DEB7CA1BEA
:101F4000DB0B0FB6F894DEBF0FBECDBF09942A8815
:101F5000398848885F846E847D848C849B84AA84BD
:101F6000B984C884DF80EE80FD800C811B81AA814A
:101F7000B981CE0FD11D0FB6F894DEBF0FBECDBF15
:101F8000ED010895A29FB001B39FC001A39F700D02
:101F9000811D1124911DB29F700D811D1124911D71
:101FA000089597FB072E16F4009407D077FD09D00B
:101FB0000E94EB0F07FC05D03EF4909581959F4F52
:101FC0000895709561957F4F0895EE0FFF1F05905E
:101FD000F491E02D0994AA1BBB1B51E107C0AA1F75
:101FE000BB1FA617B70710F0A61BB70B881F991FBA
:101FF0005A95A9F780959095BC01CD0108950E944E
:1020000006106894B1110C94320F08950E94170FB6
:1020100088F09F5798F0B92F9927B751B0F0E1F0A9
:10202000660F771F881F991F1AF0BA95C9F714C059
:10203000B13091F00E94310FB1E008950C94310F4E
:10204000672F782F8827B85F39F0B93FCCF3869592
:1020500077956795B395D9F73EF4909580957095EF
:1020600061957F4F8F4F9F4F0895FB01DC014150D9
:10207000504030F08D910190801919F40020B9F78B
:10208000881B990B0895AEE0B0E0E9E4F0E10C9410
:10209000990F0D891E8986E08C831A8309838FEF3F
:1020A0009FE79E838D83AE01475E5F4F6F89788D7A
:1020B000CE0101960E9466102F813885020F131FF2
:1020C000F80110822E96E4E00C94B50FABE0B0E07E
:1020D000ECE6F0E10C948B0F7C013B018A01FC01E2
:1020E00017821682838181FFC8C1CE0101965C01EF
:1020F000F7019381F30193FD859193FF81913F0156
:10210000882309F453C1853239F493FD859193FFF7
:1021100081913F01853229F4B70190E00E94561267
:10212000E7CF912C212C312CFFE1F31538F08B32C5
:1021300011F190F4803209F1833229F137FC3CC06F
:1021400020ED280F2A3050F536FE20C08AE0989EF8
:10215000200D1124922E06C08D3291F0803371F73C
:10216000689430F8F30193FD859193FF81913F01CD
:102170008111DACF21C0689431F8689432F8F2CF37
:10218000689433F8EFCF689434F8ECCFEAE02E9EF1
:10219000200D1124222E689435F8E4CF8E3229F4D4
:1021A00036FC04C1689436F8DDCF8C3619F4689497
:1021B00037F8D8CF8836B1F2982F9F7D9554933059
:1021C000E0F08336A1F18337C1F1833509F063C0B4
:1021D0002801F2E04F0E511CF801C080D180692D1A
:1021E00070E036FC02C06FEF7FEFC6010E94401224
:1021F0004C01689437F882010AC00C5F1F4FFFE35F
:10220000F98388248394912C6501E89437F833FE90
:102210002DC0522C8114910471F5552009F468CF1A
:10222000B70180E290E00E9456125A94F6CFF8016E
:10223000808189830E5F1F4FE4CF2801F2E04F0EAB
:10224000511CF801C080D180692D70E036FC02C0BD
:102250006FEF7FEFC6010E944B124C018201D5CF78
:10226000B70180E290E00E9456122A9428141904C3
:1022700009F0B0F7CECFF60137FC859137FE81919A
:102280006F01B70190E00E94561251105A94F1E08C
:102290008F1A9108BFCF843619F0893609F077C0BC
:1022A000F80137FE6BC060817181828193810C5F80
:1022B0001F4FF32DFF763F2E97FF09C09095809515
:1022C000709561957F4F8F4F9F4F689437F82AE044
:1022D00030E0A5010E948612C82ECA188C2C432C0F
:1022E00036FE0CC0E89440F8C91440F434FE05C032
:1022F00032FC03C0F32DFE7E4F2E892C44FE95C088
:10230000FE01EC0DF11D8081803309F087C0242D82
:10231000297E422E842D8870582E43FC95C040FEA5
:102320008FC09C2C821418F42C0C922C981844FE0C
:1023300091C0B70180E390E00E94561242FE09C0AE
:1023400088E790E041FE02C088E590E0B7010E9476
:102350005612C91408F48AC0CA94D12C9FEFC91A26
:10236000D90ACA0CDB1CF60182916F01B70190E01B
:102370000E945612AC14BD04B1F74FCF6081718139
:10238000072E000C880B990B0E5F1F4F92CFD32C9A
:10239000E894D4F82AE030E0853739F1232D297FFD
:1023A000D22E8F3601F148F48835A9F0F7018681E5
:1023B00097812B96E2E10C94A70F803749F088377C
:1023C000A9F7D4FE02C06894D2F820E130E00DC035
:1023D0006894D4F8F6CF34FE03C0822F8660D82EDE
:1023E00020E132E002C028E030E0F801D7FE0FC063
:1023F00060817181828193810C5F1F4FA5010E94D2
:102400008612C82ECA183D2CE89437F867CF608131
:10241000718190E080E00E5F1F4FF0CF42FC02C060
:10242000839478CF8394839475CF842D867809F430
:1024300071CFF6CFB70180E290E00E9456128394EC
:102440008214C0F3512C73CF522C5818821408F404
:102450006ECFF8CF842D867809F47BCF8BE241FED6
:1024600080E247FC8DE2B70190E071CFB70180E3D5
:1024700090E00E9456129A946CCF8FEF9FEF99CF05
:10248000FC010590615070400110D8F7809590953F
:102490008E0F9F1F0895FC01615070400190011044
:1024A000D8F7809590958E0F9F1F08950F931F93D7
:1024B000CF93DF93182F092FEB018B8181FD09C08A
:1024C0001FEF0FEF812F902FDF91CF911F910F9171
:1024D000089582FF14C02E813F818C819D81281731
:1024E00039073CF4E881F981CF010196998388830B
:1024F00010838E819F8101969F838E83E3CFE88531
:10250000F985812F0995892BA1F3DACFFA01AA2742
:10251000283051F1203181F1E8946F936E7F6E5F26
:102520007F4F8F4F9F4FAF4FB1E03ED0B4E03CD0D4
:10253000670F781F891F9A1FA11D680F791F8A1FB7
:10254000911DA11D6A0F711D811D911DA11D20D01E
:1025500009F468943F912AE0269F11243019305DD8
:102560003193DEF6CF010895462F4770405D4193C9
:10257000B3E00FD0C9F7F6CF462F4F70405D4A3316
:1025800018F0495D31FD4052419302D0A9F7EACFDE
:10259000B4E0A6959795879577956795BA95C9F70D
:1025A00000976105710508959B01AC010A2E069400
:1025B0005795479537952795BA95C9F7620F731FB9
:0C25C000841F951FA01D0895F894FFCF04
:1025CC00150502013F5F7F0000A6010100A9010271
:1025DC0000AC010300AF010400B2010500B5010617
:1025EC0000B8010700BB010800BE010900C1010AC7
:1025FC0000C4010B00C7010C00CA010D00CD010E77
:10260C0000D0010F00D3011000D6015E00BC007792
:10261C000100000100020003000400070001000299
:10262C000000000300000000000000040000000097
:10263C000000000000000000000000050000000089
:10264C00A30203023002F00261023F025302253062
:10265C0034580046462300303123002530325800D0
:10266C003030303023004651004750005350004763
:10267C004E00534E0046470047480053460053480F
:10268C000047490047560047420047440053440066
:0A269C004754004845004844000080
:00000001FF
