:100000000C9458000C9480000C9480000C94800098
:100010000C9480000C9480000C9480000C94800060
:100020000C9480000C9480000C9480000C94800050
:100030000C9480000C94B7030C9480000C94800006
:100040000C9415030C9480000C9485030C945F03AE
:100050000C9480000C9480000C9480000C94800020
:100060000C9480000C948000000000002500280003
:100070002B00040404040404040402020202020229
:10008000030303030303010204081020408001025C
:1000900004081020010204081020000000080002DB
:1000A0000100000304070000000000000000DE0360
:1000B00011241FBECFEFD8E0DEBFCDBF22E0A0ED00
:1000C000B1E001C01D92A23AB207E1F711E0A0E051
:1000D000B1E0EEEBF6E102C005900D92A03DB10754
:1000E000D9F710E0C8E5D0E004C02197FE010E94D6
:1000F000A808C735D107C9F70E942A040C945D0BE4
:100100000C94000090E0FC01E656FF4F2491FC01A6
:10011000EA57FF4F3491FC01EE58FF4FE491EE2374
:10012000C9F0222339F0233001F1A8F4213019F16C
:10013000223029F1F0E0EE0FFF1FE859FF4FA591A3
:10014000B4918FB7F894EC91611126C030953E239D
:100150003C938FBF08952730A9F02830C9F0243090
:1001600049F7809180008F7D03C0809180008F7758
:1001700080938000DFCF84B58F7784BDDBCF84B5DB
:100180008F7DFBCF8091B0008F778093B000D2CF6E
:100190008091B0008F7DF9CF3E2BDACFCF93DF93E4
:1001A00002978F31910540F58C5A9E4FFC0180815A
:1001B000082E000C990B880F991FFC01E85BFE4F7D
:1001C000C081D1816C2F6170809199020E94820060
:1001D000BE0175956795617080919B020E948200B7
:1001E000D595C795D595C7956C2F617080919D0267
:1001F000DF91CF910C94820090E080E0DCCF61E051
:10020000019709F060E0809193020E94820061E012
:10021000809195020E94820083E090E00197F1F7BF
:1002200060E0809195020C948200AF92BF92CF92D1
:10023000DF92EF92FF920F931F93CF93DF936C01A6
:100240007B018B01040F151FEB015E01AE18BF0887
:10025000C017D10759F06991D601ED91FC91019039
:10026000F081E02DC6010995892B79F7C501DF9151
:10027000CF911F910F91FF90EF90DF90CF90BF90A3
:10028000AF900895FC01538D448D252F30E0842FCD
:1002900090E0821B930B541710F0CF9608950197AE
:1002A0000895FC01918D828D981761F0A28DAE0F9B
:1002B000BF2FB11D5D968C91928D9F5F9F73928F22
:1002C00090E008958FEF9FEF0895FC01918D828D4E
:1002D000981731F0828DE80FF11D858D90E008951B
:1002E0008FEF9FEF0895FC01918D228D892F90E073
:1002F000805C9F4F821B91098F739927089586EF29
:1003000091E00E94730121E0892B09F420E0822F03
:10031000089580E090E0892B29F00E947F018111EF
:100320000C9400000895FC01A48DA80FB92FB11DF5
:10033000A35ABF4F2C91848D90E001968F7399271B
:10034000848FA689B7892C93A089B1898C918370F9
:1003500080648C93938D848D981306C00288F389F2
:10036000E02D80818F7D80830895EF92FF920F931F
:100370001F93CF93DF93EC0181E0888F9B8D8C8D51
:1003800098131AC0E889F989808185FF15C09FB745
:10039000F894EE89FF896083E889F9898081837008
:1003A000806480839FBF81E090E0DF91CF911F91B7
:1003B0000F91FF90EF900895F62E0B8D10E00F5FD8
:1003C0001F4F0F731127E02E8C8D8E110CC00FB6AE
:1003D00007FCFACFE889F989808185FFF5CFCE0146
:1003E0000E949301F1CFEB8DEC0FFD2FF11DE35A2D
:1003F000FF4FF0829FB7F8940B8FEA89FB898081C9
:100400008062CFCFCF93DF93EC01888D8823B9F042
:10041000AA89BB89E889F9898C9185FD03C080810F
:1004200086FD0DC00FB607FCF7CF8C9185FFF2CF8C
:10043000808185FFEDCFCE010E949301E9CFDF914E
:10044000CF9108950895CF93DF93C3E9D2E061E09F
:100450008C810E9482001C86DF91CF91089580914B
:10046000DF0181117BC08091D9019091DA011816CA
:1004700019060CF073C08091D9019091DA010197AF
:100480009093DA018093D9018091D9019091DA019A
:10049000892B09F468C08091D0019091D101019617
:1004A0009093D1018093D001209102012817190661
:1004B00011F00CF052C01092D1011092D001809135
:1004C000DF01882309F449C02091DD013091DE016C
:1004D0008091DB019091DC012817390761F0809150
:1004E0009F02811108C060E0809197020E94820003
:1004F00081E080939F022091DD013091DE018091A7
:10050000DB019091DC012817390730F48091DD017F
:100510009091DE01019671F52091DD013091DE01AF
:100520008091DB019091DC018217930788F1209183
:10053000DD013091DE018091DB019091DC01281713
:10054000390759F41092DF0181E08093EC0188EEC5
:1005500093E09093DA018093D90108951092DA0123
:100560001092D90198CF8091D801811194CF0E9427
:10057000230291CF81E090E00E94FF008091DD0195
:100580009091DE0101969093DE018093DD01CFCF43
:100590008091DD019091DE01892B49F28FEF9FEF71
:1005A0000E94FF008091DD019091DE010197EBCF69
:1005B000FC0101900020E9F73197AF01481B590B6E
:1005C000BC0186EF91E00C9415010F931F93CF931C
:1005D000DF938091DD019091DE019093D4018093AF
:1005E000D301809102018093D60180910301809311
:1005F000D5018091D8018093D70102ED11E0D0E0C0
:10060000C0E0CE010E940F08F80161918F016817C8
:1006100019F0CE010E9417082196C630D10589F73E
:10062000DF91CF911F910F9108951F920F920FB6F6
:100630000F9211242F933F938F939F93AF93BF9368
:100640008091F2019091F301A091F401B091F50134
:100650003091F10123E0230F2D3758F50196A11DAC
:10066000B11D2093F1018093F2019093F301A093C7
:10067000F401B093F5018091ED019091EE01A0910C
:10068000EF01B091F0010196A11DB11D8093ED0124
:100690009093EE01A093EF01B093F001BF91AF9161
:1006A0009F918F913F912F910F900FBE0F901F90B0
:1006B000189526E8230F0296A11DB11DD2CF1F92D7
:1006C0000F920FB60F9211242F933F934F935F9386
:1006D0006F937F938F939F93AF93BF93EF93FF930A
:1006E00086EF91E00E949301FF91EF91BF91AF914E
:1006F0009F918F917F916F915F914F913F912F913A
:100700000F900FBE0F901F9018951F920F920FB66B
:100710000F9211242F938F939F93EF93FF93E09168
:100720000602F09107028081E0910C02F0910D0227
:1007300082FD1BC0908180910F028F5F8F7320918B
:100740001002821741F0E0910F02F0E0EA50FE4FF4
:10075000958F80930F02FF91EF919F918F912F9131
:100760000F900FBE0F901F9018958081F4CF1F92AD
:100770000F920FB60F9211242F933F934F935F93D5
:100780006F937F938F939F93AF93BF93EF93FF9359
:10079000E0910001F09101010995FF91EF91BF9166
:1007A000AF919F918F917F916F915F914F913F9109
:1007B0002F910F900FBE0F901F901895E6EFF1E06C
:1007C0001382128288EE93E0A0E0B0E084839583E8
:1007D000A683B78387E791E09183808385EC90E0DF
:1007E0009587848784EC90E09787868780EC90E0FB
:1007F000918B808B81EC90E0938B828B82EC90E0EC
:10080000958B848B86EC90E0978B868B118E128E65
:10081000138E148EE3E9F2E082E090E0918380830E
:1008200083E090E09383828387E090E095838483E4
:1008300086E090E09783868385E090E091878087CB
:1008400084E090E09387828781E090E00E94CE0070
:100850000C942302CF93DF9300D000D0CDB7DEB746
:10086000789484B5826084BD84B5816084BD85B58B
:10087000826085BD85B5816085BD80916E00816097
:1008800080936E001092810080918100826080933D
:10089000810080918100816080938100809180003F
:1008A0008160809380008091B10084608093B1006A
:1008B0008091B00081608093B00080917A00846064
:1008C00080937A0080917A00826080937A00809190
:1008D0007A00816080937A0080917A0080688093AA
:1008E0007A001092C10062EDE62E61E0F62E10E073
:1008F00000E0C8010E940F08F70181937F010F5F9C
:100900001F4F06301105A9F78091D201863409F0F6
:1009100079C18091D3019091D4019093DE018093AD
:10092000DD018091D6018093020181E09091D50193
:10093000911101C080E08093030181E09091D70183
:10094000911101C080E08093D8018091DD019091E8
:10095000DE019093DC018093DB011092E4011092A0
:10096000E5011092E6011092E7011092E801109261
:10097000E9011092EA011092EB01E0910602F09178
:10098000070282E08083E0910202F091030210826C
:10099000E0910402F09105028FEC808310920E0228
:1009A000E0910A02F0910B0286E08083E091080258
:1009B000F0910902808180618083E0910802F091CA
:1009C0000902808188608083E0910802F091090229
:1009D000808180688083E0910802F0910902808123
:1009E0008F7D808380910301811126C188E090E092
:1009F0000E94CE008091D801882309F420C160E0D4
:100A0000809197020E94820081E080939F0280E1A2
:100A1000809381001092800080EA9FE0909387008D
:100A20008093860081E1809381008FE292E0909331
:100A300001018093000181E080936F002CEE222E53
:100A400021E0322E32E9632E31E0732ECE01019681
:100A50007C0145E8C42E41E0D42E58EE852E53E0AB
:100A6000952E552453948091EC01882321F00E9407
:100A7000E5021092EC0180919F028823F1F02FB7DC
:100A8000F8948091F2019091F301A091F401B0915A
:100A9000F5012FBF4091E0015091E1016091E20129
:100AA0007091E301841B950BA60BB70B813395471F
:100AB000A105B10510F00E94230286EF91E00E948B
:100AC0007301892B09F4D8C086EF91E00E9451018F
:100AD000CA9709F0D1C01092E4011092E50110927A
:100AE000E6011092E7011092E8011092E9011092DC
:100AF000EA011092EB0104EE11E02FB7F894809117
:100B0000F2019091F301A091F401B091F5012FBF92
:100B10008093FE019093FF01A0930002B093010225
:100B200086EF91E00E94510197FF4AC12FB7F894D8
:100B30008091F2019091F301A091F401B091F5013F
:100B40002FBF4091FE015091FF0160910002709112
:100B50000102841B950BA60BB70B4091FA01509133
:100B6000FB016091FC017091FD0184179507A607B8
:100B7000B707B0F294E0A92E91E0B92E10E000E0A2
:100B8000F5016281738142E050E084EE91E00E94C1
:100B9000AE08892B09F056C0000F111F000F111F5E
:100BA000F801EC5FFE4F0190F081E02D2FB7F89433
:100BB0008091F2019091F301A091F401B091F501BF
:100BC0002FBF8093E0019093E101A093E201B093E5
:100BD000E301E131F10508F04FC0EF50FA4F0C94FA
:100BE000A8082E064906630676067B068C068F0645
:100BF0009806A306AE06B206B506B806BF06CE0630
:100C0000D106DB0686E48093D2011092DE011092B9
:100C1000DD011092D4011092D30182E08093020191
:100C20008093D60181E0809303018093D5011092D7
:100C3000D8011092D70189CE80E190E0D9CE0E94F0
:100C40002302E5CE0F5F1F4FF4E0AF0EB11C013160
:100C5000110509F095CFE1E1F0E0A8CF1092DF0196
:100C60008091DD019091DE019093DC018093DB01A6
:100C70009092DA018092D90180E090E0892B09F40A
:100C8000F2CE0E947F01882309F4EDCE0E9400007D
:100C9000E8CE8091DD019091DE019F938F93DF92EA
:100CA000CF92FF92EF920E94BC08C7010E94D80227
:100CB0008BE991E00E94D8020F900F900F900F9057
:100CC0000F900F90D9CF8091DF018111D5CF40E1F6
:100CD00050E070E060E086EE91E00E94EC067093D8
:100CE000DE016093DD010E94E502C6CF8091DB0149
:100CF0009091DC01D2CF8091DF018111BDCF40E125
:100D000050E070E060E086EE91E00E94EC067093A7
:100D1000DC016093DB01B0CF5092DF01ADCF809159
:100D20000301882311F18AE891E00E94D802A4CF40
:100D30008091DF018111A0CF88E090E00E94CE0079
:100D400010920301D0CF8091DF01811195CF80E116
:100D500090E00E94CE0050920301C5CF8091DF0148
:100D6000882319F08EE891E0E0CF89E991E0DDCFAA
:100D7000809102011F928F937F926F9292CF809108
:100D8000DF01811179CF40E150E070E060E086EE54
:100D900091E00E94EC0660930201A5CF87E991E003
:100DA000C4CF5092D80160E0809197020E948200E7
:100DB00050929F0298CF1092D8010E94230293CFA5
:100DC0008332910509F4D6CEF80181938F012E1656
:100DD0003F0609F092CECECEB0E0A0E0E2EFF6E022
:100DE0000C9463085C016B017A016115710519F0BF
:100DF000FB0191838083E114F10451F0C701029754
:100E0000839730F040E030E020E090E072C05E0177
:100E1000E5012196F5011081812F90E00E940308E1
:100E2000892BA9F71D3201F52196F501118101E009
:100E3000E114F10409F4DAC0F0E1EF16F10409F06D
:100E400082C0103359F488818F7D883509F076C0CF
:100E5000198122960260F0E1EF2EF12C812C912C69
:100E6000A12C88E0B82E8CC01B3221F4E50122961B
:100E7000F501118100E0DCCFEAE0EE16F10409F49F
:100E8000BBC0F0E1EF16F10409F06DC0E7CF78E0E8
:100E9000E72EF12C812C912CA12C60E1B62E70C094
:100EA0003FE9310F3A3128F439EA332E80C021E08E
:100EB0009AC0302F3170C114D10431F0222309F1CE
:100EC0002197F601D183C08327FF21C060E070E045
:100ED00080E090E8311104C06FEF7FEF8FEF9FE764
:100EE00022E230E03093A1022093A002462F372F58
:100EF000282F642F732F822FCDB7DEB7E1E10C943A
:100F00007F0801FF04C02297F601D183C0833323F9
:100F100041F090958095709561957F4F8F4F9F4FD1
:100F2000E5CF97FFE3CF82E290E09093A102809318
:100F3000A0026FEF7FEF8FEF9FE7D8CF10E3E114B0
:100F4000F10409F4A4CF28E0E216F10409F4A2CFD9
:100F50000CF092CF812C912CA12CE0E4BE2E82E0EB
:100F6000E816F10469F060E070E080E090E8970135
:100F70000F2C000C440B550B0E94350849015A01F7
:100F800020E060E070E0CB0127010F2C000C660828
:100F90007708FE0150ED352E310E39E0331540F45F
:100FA0003FEB310F3A3108F07BCF49EC342E310E54
:100FB0003E141F040CF07DCF27FD15C08616970642
:100FC000A806B90678F0A30192010E942508630DD6
:100FD000711D811D911D61307105810520E8920709
:100FE00008F465CF2FEF21961081D3CF103309F489
:100FF0002ACF2AE0E22EF12C9CEC892E982CA82CEA
:101000009CE0B92EBDCF91110C940C08803219F0E0
:1010100089508550C8F70895992788270895F99928
:10102000FECF92BD81BDF89A992780B50895262FED
:10103000F999FECF1FBA92BD81BD20BD0FB6F894BD
:10104000FA9AF99A0FBE01960895DB018F939F9348
:101050000E945708BF91AF91A29F800D911DA39F41
:10106000900DB29F900D11240895A1E21A2EAA1B93
:10107000BB1BFD010DC0AA1FBB1FEE1FFF1FA21748
:10108000B307E407F50720F0A21BB30BE40BF50B45
:10109000661F771F881F991F1A9469F760957095CE
:1010A000809590959B01AC01BD01CF0108950E94F0
:1010B0009908A59F900DB49F900DA49F800D911D40
:1010C000112408952F923F924F925F926F927F92D8
:1010D0008F929F92AF92BF92CF92DF92EF92FF9248
:1010E0000F931F93CF93DF93CDB7DEB7CA1BDB0BF4
:1010F0000FB6F894DEBF0FBECDBF09942A88398899
:1011000048885F846E847D848C849B84AA84B9849F
:10111000C884DF80EE80FD800C811B81AA81B981AB
:10112000CE0FD11D0FB6F894DEBF0FBECDBFED01BF
:101130000895A29FB001B39FC001A39F700D811DB0
:101140001124911DB29F700D811D1124911D0895D0
:10115000EE0FFF1F0590F491E02D0994FB01DC01D7
:101160004150504030F08D910190801919F40020C9
:10117000B9F7881B990B0895AEE0B0E0E2ECF8E017
:101180000C9470080D891E8986E08C831A8309836C
:101190008FEF9FE79E838D83AE01475E5F4F6F8920
:1011A000788DCE0101960E94DF082F813885020FCD
:1011B000131FF80110822E96E4E00C948C08ABE02B
:1011C000B0E0E5EEF8E00C9462087C013B018A0196
:1011D000FC0117821682838181FFC8C1CE0101966E
:1011E0005C01F7019381F30193FD859193FF819158
:1011F0003F01882309F453C1853239F493FD859169
:1012000093FF81913F01853229F4B70190E00E945C
:10121000CF0AE7CF912C212C312CFFE1F31538F0C8
:101220008B3211F190F4803209F1833229F137FCCD
:101230003CC020ED280F2A3050F536FE20C08AE051
:10124000989E200D1124922E06C08D3291F080338D
:1012500071F7689430F8F30193FD859193FF8191C4
:101260003F018111DACF21C0689431F8689432F8D7
:10127000F2CF689433F8EFCF689434F8ECCFEAE01B
:101280002E9E200D1124222E689435F8E4CF8E3244
:1012900029F436FC04C1689436F8DDCF8C3619F495
:1012A000689437F8D8CF8836B1F2982F9F7D95543F
:1012B0009330E0F08336A1F18337C1F1833509F033
:1012C00063C02801F2E04F0E511CF801C080D180AC
:1012D000692D70E036FC02C06FEF7FEFC6010E94FF
:1012E000B90A4C01689437F882010AC00C5F1F4F9D
:1012F000FFE3F98388248394912C6501E89437F8FF
:1013000033FE2DC0522C8114910471F5552009F43F
:1013100068CFB70180E290E00E94CF0A5A94F6CFDE
:10132000F801808189830E5F1F4FE4CF2801F2E02E
:101330004F0E511CF801C080D180692D70E036FC41
:1013400002C06FEF7FEFC6010E94C40A4C01820108
:10135000D5CFB70180E290E00E94CF0A2A942814EA
:10136000190409F0B0F7CECFF60137FC859137FEAE
:1013700081916F01B70190E00E94CF0A51105A94F9
:10138000F1E08F1A9108BFCF843619F0893609F041
:1013900077C0F80137FE6BC06081718182819381D3
:1013A0000C5F1F4FF32DFF763F2E97FF09C09095DE
:1013B0008095709561957F4F8F4F9F4F689437F858
:1013C0002AE030E0A5010E94FF0AC82ECA188C2C22
:1013D000432C36FE0CC0E89440F8C91440F434FEA7
:1013E00005C032FC03C0F32DFE7E4F2E892C44FE37
:1013F00095C0FE01EC0DF11D8081803309F087C09E
:10140000242D297E422E842D8870582E43FC95C0B1
:1014100040FE8FC09C2C821418F42C0C922C98182F
:1014200044FE91C0B70180E390E00E94CF0A42FEE3
:1014300009C088E790E041FE02C088E590E0B7016E
:101440000E94CF0AC91408F48AC0CA94D12C9FEF15
:10145000C91AD90ACA0CDB1CF60182916F01B701C7
:1014600090E00E94CF0AAC14BD04B1F74FCF608169
:101470007181072E000C880B990B0E5F1F4F92CFC6
:10148000D32CE894D4F82AE030E0853739F1232DC5
:10149000297FD22E8F3601F148F48835A9F0F70163
:1014A000868197812B96E2E10C947E08803749F083
:1014B0008837A9F7D4FE02C06894D2F820E130E062
:1014C0000DC06894D4F8F6CF34FE03C0822F866036
:1014D000D82E20E132E002C028E030E0F801D7FE4B
:1014E0000FC060817181828193810C5F1F4FA501C4
:1014F0000E94FF0AC82ECA183D2CE89437F867CF1F
:101500006081718190E080E00E5F1F4FF0CF42FC60
:1015100002C0839478CF8394839475CF842D86788A
:1015200009F471CFF6CFB70180E290E00E94CF0AB4
:1015300083948214C0F3512C73CF522C5818821408
:1015400008F46ECFF8CF842D867809F47BCF8BE238
:1015500041FE80E247FC8DE2B70190E071CFB70118
:1015600080E390E00E94CF0A9A946CCF8FEF9FEFB8
:1015700099CFFC010590615070400110D8F780951B
:1015800090958E0F9F1F0895FC016150704001904F
:101590000110D8F7809590958E0F9F1F08950F9397
:1015A0001F93CF93DF93182F092FEB018B8181FDC0
:1015B00009C01FEF0FEF812F902FDF91CF911F9167
:1015C0000F91089582FF14C02E813F818C819D81EF
:1015D000281739073CF4E881F981CF0101969983F6
:1015E000888310838E819F8101969F838E83E3CFB2
:1015F000E885F985812F0995892BA1F3DACFFA01C6
:10160000AA27283051F1203181F1E8946F936E7F41
:101610006E5F7F4F8F4F9F4FAF4FB1E03ED0B4E032
:101620003CD0670F781F891F9A1FA11D680F791F73
:101630008A1F911DA11D6A0F711D811D911DA11D84
:1016400020D009F468943F912AE0269F1124301994
:10165000305D3193DEF6CF010895462F4770405D2F
:101660004193B3E00FD0C9F7F6CF462F4F70405DDE
:101670004A3318F0495D31FD4052419302D0A9F739
:10168000EACFB4E0A6959795879577956795BA9533
:10169000C9F700976105710508959B01AC010A2EF9
:1016A00006945795479537952795BA95C9F7620FD0
:0E16B000731F841F951FA01D0895F894FFCF8F
:1016BE002202020100009D010100A0010200A3010F
:1016CE000300A6010400A9010500AC010600AF014C
:1016DE000700B2010800B5010900B8010A00BB01FC
:1016EE000B00BE010C00C1010D00C4010E00C701AC
:1016FE000F00CA011000CD0100000100020003001E
:10170E0004000700010002000000030000000000BA
:10171E0000000400000000000000000000000000B7
:10172E0000000500000000B5011501420102027320
:10173E0001510165012530345800464623003031F1
:10174E00230025303258003030303023004651000F
:10175E00475000535000474E00534E004647004737
:10176E004800534600534800474900475600474239
:10177E000047440053440047540048450048440085
:00000001FF
